:100000000C9483000C9484110C945D110C94AB003F
:100010000C94AB000C94AB000C94AB000C94AB00B4
:100020000C94AB000C94AB000C94AB000C94AB00A4
:100030000C94AB000C94AB000C94AB000C94AB0094
:100040000C9413110C94AB000C94D1110C94AB11C3
:100050000C94AB000C94AB000C94AB000C94AB0074
:100060000C94AB000C94AB004E414E494E49545990
:10007000494E46CDCCCC3D0AD7233C17B7D1387773
:10008000CC2B329595E6241FB14F0A000020410089
:1000900000C84200401C4620BCBE4CCA1B0E5AAED3
:1000A000C59D7472756E2D6272696467650A000A77
:1000B000000A00000000080002010000030407001D
:1000C0000000000000000000000000250028002BB8
:1000D0000000000000240027002A00040404040497
:1000E00004040402020202020203030303030301E5
:1000F00002040810204080010204081020010204BC
:1001000008102000031211241FBECFEFD8E0DEBF7D
:10011000CDBF24E0A8E5B3E001C01D92AB34B20727
:10012000E1F713E0A0E0B1E0E0E3F9E302C00590FD
:100130000D92A835B107D9F710E0C3E8D0E004C0AC
:100140002197FE010E94091AC238D107C9F70E94FF
:100150008C120C94961C0C94000090E0FC01E15170
:10016000FF4F249185529F4FFC018491882399F081
:1001700090E0880F991FFC01EF52FF4FA591B491B9
:10018000FC01E953FF4F859194918FB7F894EC915E
:10019000E22BEC938FBF089590E0FC01ED54FF4FEC
:1001A0002491FC01E151FF4F3491FC01E552FF4FD6
:1001B000E491EE23C9F0222339F0233001F1A8F4B1
:1001C000213019F1223029F1F0E0EE0FFF1FE95341
:1001D000FF4FA591B4918FB7F894EC91611126C0AF
:1001E00030953E233C938FBF08952730A9F02830E7
:1001F000C9F0243049F7809180008F7D03C0809141
:1002000080008F7780938000DFCF84B58F7784BDA7
:10021000DBCF84B58F7DFBCF8091B0008F7780934B
:10022000B000D2CF8091B0008F7DF9CF3E2BDACFD6
:100230003FB7F8948091740390917503A091760371
:10024000B091770326B5A89B05C02F3F19F0019602
:10025000A11DB11D3FBFBA2FA92F982F8827BC0120
:10026000CD01620F711D811D911D42E0660F771F48
:10027000881F991F4A95D1F708958F929F92AF9248
:10028000BF92CF92DF92EF92FF924B015C010E94EE
:1002900018016B017C010E9418016C197D098E09FF
:1002A0009F09683E734081059105A8F321E0821AF9
:1002B0009108A108B10888EEC80E83E0D81EE11CA1
:1002C000F11C81149104A104B10429F7FF90EF906F
:1002D000DF90CF90BF90AF909F908F90089508953A
:1002E000EF92FF920F931F93CF93DF938C017B01CB
:1002F000D0E0C0E0F701EC0FFD1F6491662361F0D0
:10030000D801ED91FC910190F081E02DC801099593
:10031000892B11F02196EECFCE01DF91CF911F9165
:100320000F91FF90EF900895AF92BF92CF92DF921E
:10033000EF92FF920F931F93CF93DF936C017B019A
:100340008B01040F151FEB015E01AE18BF08C0172B
:10035000D10759F06991D601ED91FC910190F0819E
:10036000E02DC6010995892B79F7C501DF91CF9161
:100370001F910F91FF90EF90DF90CF90BF90AF90C3
:100380000895FC01538D448D252F30E0842F90E09B
:10039000821B930B541710F0CF9608950197089580
:1003A000FC01918D828D981761F0A28DAE0FBF2F49
:1003B000B11D5D968C91928D9F5F9F73928F90E09F
:1003C00008958FEF9FEF0895FC01918D828D98170E
:1003D00031F0828DE80FF11D858D90E008958FEF4B
:1003E0009FEF0895FC01918D228D892F90E0805C14
:1003F0009F4F821B91098F73992708958DE993E090
:100400000E94F20121E0892B09F420E0822F089557
:1004100080E090E0892B29F00E94FE0181110C946C
:1004200000000895FC01A48DA80FB92FB11DA35A97
:10043000BF4F2C91848D90E001968F739927848F04
:10044000A689B7892C93A089B1898C918370806427
:100450008C93938D848D981306C00288F389E02DC8
:1004600080818F7D80830895EF92FF920F931F9379
:10047000CF93DF93EC0181E0888F9B8D8C8D981357
:100480001AC0E889F989808185FF15C09FB7F89463
:10049000EE89FF896083E889F989808183708064AF
:1004A00080839FBF81E090E0DF91CF911F910F91FA
:1004B000FF90EF900895F62E0B8D10E00F5F1F4F09
:1004C0000F731127E02E8C8D8E110CC00FB607FC18
:1004D000FACFE889F989808185FFF5CFCE010E94A6
:1004E0001202F1CFEB8DEC0FFD2FF11DE35AFF4F00
:1004F000F0829FB7F8940B8FEA89FB898081806234
:10050000CFCFCF93DF93EC01888D8823B9F0AA89F0
:10051000BB89E889F9898C9185FD03C0808186FDBE
:100520000DC00FB607FCF7CF8C9185FFF2CF80810D
:1005300085FFEDCFCE010E941202E9CFDF91CF916E
:1005400008950F931F93CF93DF93EC01062F142F81
:1005500060E088890E94CC009C858D859CBD8DBD06
:100560000EBD00000DB407FEFDCF8EB51EBD000010
:100570000DB407FEFDCF1EB561E088890E94CC0056
:10058000812FDF91CF911F910F910895AF92BF926C
:10059000CF92DF92EF92FF920F931F93CF93DF934F
:1005A00060938F03709390038093910390939203D1
:1005B0006B017C01FF0CCC08DC2C76019B01AC01AB
:1005C0006C2D7C2D8C2D9C2D03E10E946E1AA12C8C
:1005D000E8E4BE2EF8EECF2EDD24D394E12CF12CEE
:1005E00000E010E00E94111AF22EB32E142FD52F26
:1005F000C62FC72ED82EE92E00E10E94891A422F5D
:1006000066E889E793E00E94A1022F2D3B2D412F40
:100610005D2F6C2F7C2D8D2D9E2D08E00E94891A58
:10062000422F67E889E793E00E94A1024F2D68E816
:1006300089E793E0DF91CF911F910F91FF90EF90A9
:10064000DF90CF90BF90AF900C94A10240E00C944B
:10065000A102CF92DF92EF92FF92CF93DF936DE1F1
:1006600089E793E00E94260390E034E09595879512
:100670003A95E1F78A3091050CF042C0FC01EE0F8B
:10068000FF1FE80FF91FE75DFE4FC080D180E280B9
:100690000E2C000CFF086EE189E793E00E94260310
:1006A000D82F66E289E793E00E942603C82FD295EF
:1006B000DF7021E030E040E050E004C0220F331F43
:1006C000441F551FDA95D2F7C701B6010E94EA19F7
:1006D00068EE73E080E090E00E94EA192131310574
:1006E0004105510594F04C2F486066EA89E793E094
:1006F000DF91CF91FF90EF90DF90CF900C94A1020B
:10070000CC24CA94DC2C7601C6CF4C2F477FEDCF8A
:1007100008950F931F93CF93DF93EC01E881F98144
:100720000084F185E02D0995892BB1F06DE0CE01B3
:100730000E942603082F60E0CE010E942603182F96
:10074000402F6DE8CE010E94A102812F90E0DF9141
:10075000CF911F910F9108958FEF9FEFF8CFCF9317
:10076000DF93EC01E881F9810084F185E02D0995A2
:10077000892B69F08A8D9B8D01969B8F8A8F60E013
:10078000CE010E94260390E0DF91CF9108958FEF74
:100790009FEFFACFCF93DF93EC0163E10E94260332
:1007A00090E02A8D3B8D821B930BDF91CF910895B2
:1007B000AF92BF92CF92DF92FF920F931F93CF938E
:1007C000DF936C015B01EA0162E20E942603F82ECE
:1007D00090E09C012C0F3D1F2F3F310529F020F0A8
:1007E000CFEFD0E0C81BD90B8501AC0EBD1E0A159A
:1007F0001B0541F0F80141918F0160E8C6010E949C
:10080000A102F5CF4C2F4F0D62EAC6010E94A10252
:10081000CE01DF91CF911F910F91FF90DF90CF908C
:10082000BF90AF900895CF93DF931F92CDB7DEB7FF
:100830006983DC01ED91FC910280F381E02D41E0C0
:1008400050E0BE016F5F7F4F09950F90DF91CF9110
:100850000895CF93DF931F92CDB7DEB76983DC0194
:10086000ED91FC910280F381E02D41E050E0BE016A
:100870006F5F7F4F09950F90DF91CF910895CF93D0
:10088000DF93EC018D819E81DC01ED91FC91008470
:10089000F185E02D09951816190654F48D819E8175
:1008A000DC01ED91FC910284F385E02D0995EACFFE
:1008B000DF91CF9108958F929F92AF92BF92CF9286
:1008C000DF92EF92FF92CF93DF93EC018FB7F89412
:1008D0008090700390907103A0907203B0907303A6
:1008E0008FBF6B01F12CE12C8D819E81DC01ED919C
:1008F000FC910284F385E02D099597FF16C02FB770
:10090000F8948091700390917103A0917203B0915B
:1009100073032FBF88199909AA09BB098C159D0576
:10092000AE05BF0508F38FEF9FEFDF91CF91FF90EA
:10093000EF90DF90CF90BF90AF909F908F900895F1
:10094000FC01238134812627022E2295207F202539
:10095000032E322F22952F70022626953227232729
:10096000220F220F220F20253483238308952F92F4
:100970003F924F925F926F927F928F929F92AF922F
:10098000BF92CF92DF92EF92FF920F931F93CF937C
:10099000DF93CDB7DEB72A970FB6F894DEBF0FBE50
:1009A000CDBF9A8789875B01290137011A01200E83
:1009B000311E3A82198288248A94982C9A01260F33
:1009C000371F3E832D83C801840D951D98878F8323
:1009D000A985BA8518968C91B981B81708F040C1DD
:1009E000E985FA859482838285819681DC01ED9187
:1009F000FC910190F081E02D6FEF09956FEF8985F3
:100A00009A850E94A004E985FA8585819681DC019A
:100A1000ED91FC910190F081E02DA985BA856C9152
:100A20000995E985FA856081CF010E94A004A98516
:100A3000BA8515968D919C91DC01ED91FC91019008
:100A4000F081E02D6A8109956A8189859A850E94E5
:100A5000A004E985FA8585819681DC01ED91FC9100
:100A60000190F081E02D622D0995622D89859A858E
:100A70000E94A0048501E985FA8585819681D801C7
:100A80006D918D01DC01ED91FC910190F081E02DE3
:100A90000995F8013197608189859A850E94A004A3
:100AA000ED81FE810E171F0731F78201A985BA85F6
:100AB00015968D919C91DC01ED91FC910190F08156
:100AC000E02D2F8138852017310761F0D8016D9115
:100AD0008D010995F8013197608189859A850E9479
:100AE000A004E4CFA985BA8514966C910995E9858F
:100AF000FA8585819681DC01ED91FC910190F08170
:100B0000E02DA985BA8513966C91099568EC70E083
:100B100089859A850E945B048F3F910509F092C0F8
:100B2000E985FA85948283826FEFCF010E94A00449
:100B300065E070E089859A850E945B04A985BA8585
:100B40006C916817190609F07DC0CD010E94A004C0
:100B50006AE070E089859A850E945B047C0197FDBC
:100B600071C0682F89859A850E94A0046AE070E0B0
:100B700089859A850E945B048C0197FD63C0682F6C
:100B800089859A850E94A004EC821B82EB81FC81FE
:100B90000E0F1F1FF12CE12C65E070E089859A850E
:100BA0000E151F05A1F0EC14FD0489F00E945B04F2
:100BB00097FD09C0F301EE0DFF1D8083682F898525
:100BC0009A850E94A004FFEFEF1AFF0AE5CF0E946A
:100BD0005B047C0197FD36C065E070E089859A85ED
:100BE0000E945B0497FD2EC0FE2CEE248E0D9F1DEF
:100BF000A985BA8513962D913C9114978217930776
:100C000009F58C918F5F8C93C801C016D10608F44A
:100C1000C6012A960FB6F894DEBF0FBECDBFDF9196
:100C2000CF911F910F91FF90EF90DF90CF90BF90E9
:100C3000AF909F908F907F906F905F904F903F907C
:100C40002F900895B981BF5FB98364E670E080E0BA
:100C500090E00E943D0189859A850E943F04B8CEAC
:100C60008FEF9FEFD6CFAF92BF92CF92DF92EF92EE
:100C7000FF920F931F93CF93DF9300D01F92CDB7B6
:100C8000DEB79B015A01FC01E85AFF4F40814F3FFC
:100C900081F147E64983319640814A83805B9F4FCB
:100CA000CC24C394D12CAE014D5F5F4F7A018501F6
:100CB00042E050E0BE016F5F7F4FFC018081918177
:100CC0000E94B7048B81882329F0A82EB12CB194FF
:100CD000A194B108C5010F900F900F90DF91CF91B3
:100CE0001F910F91FF90EF90DF90CF90BF90AF904A
:100CF00008958FEF9FEFEFCFCF92DF92EF92FF92A9
:100D00000F931F936801790110E000E030E020E0CC
:100D10000E94B7041F910F91FF90EF90DF90CF904A
:100D20000895EF92FF920F931F93CF93DF9300D01C
:100D3000CDB7DEB77C01FC018189882389F087E784
:100D4000898386858A8310E000E030E020E042E07D
:100D500050E0BE016F5F7F4F848595850E947C06C1
:100D6000F701118A0F900F90DF91CF911F910F9192
:100D7000FF90EF900895EF92FF920F931F93CF9300
:100D8000DF9300D01F92CDB7DEB7FC01228921117D
:100D900018C07C01138A8FE4898380E48B83868565
:100DA0008A839F012C5E3F4F00E410E043E050E057
:100DB000BE016F5F7F4F848595850E947C06F70199
:100DC000828B0F900F900F90DF91CF911F910F9119
:100DD000FF90EF900895CF93DF93EC010E94BB0644
:100DE0008A89882341F08B89C80FD11D8C8990E0B6
:100DF000DF91CF9108958FEF9FEFFACFCF93DF93DD
:100E0000EC010E94BB068A89882369F081508A8B95
:100E10008B8991E0980F9B8BC80FD11D8C8990E036
:100E2000DF91CF9108958FEF9FEFFACFCF93DF93AC
:100E3000EC010E94BB068A8990E0DF91CF91089572
:100E40000F931F93CF93DF9300D01F92CDB7DEB7E0
:100E500029E42983FC0126852A836B8310E000E0C6
:100E600030E020E043E050E0BE016F5F7F4F8485BB
:100E700095850E947C0681E090E00F900F900F9086
:100E8000DF91CF911F910F910895EF92FF920F93F1
:100E90001F93CF93DF9300D01F92CDB7DEB77C01B5
:100EA00028E5E20EF11CF70120812F3FC9F026E66C
:100EB0002983319620812A83805B9F4F01E010E0D7
:100EC0009E012D5F3F4F42E050E0BE016F5F7F4FBC
:100ED000FC01808191810E947C068FEFF701808365
:100EE0000F900F900F90DF91CF911F910F91FF9076
:100EF000EF900895EF92FF920F931F93CF93DF939C
:100F000000D01F92CDB7DEB7FC012485211121C08E
:100F10007C01158687E489838FE38B83E75AFF4F33
:100F200080818A839701205F3F4F399700E410E06A
:100F300043E050E0BE016F5F7F4F808191810E944E
:100F40007C069C01215031092E3F3F4F60F0F70194
:100F500014860F900F900F90DF91CF911F910F91FA
:100F6000FF90EF900895F70195859F5F95878150D9
:100F70008487EFCFCF93DF93EC010E947A078C85B3
:100F800090E0DF91CF910895CF93DF93EC010E9421
:100F90007A078C85882341F08D85C80FD11D8889FB
:100FA00090E0DF91CF9108958FEF9FEFFACFCF932D
:100FB000DF93EC010E947A078C85882369F08150C9
:100FC0008C878D8591E0980F9D87C80FD11D8889EA
:100FD00090E0DF91CF9108958FEF9FEFFACF90E0EF
:100FE00080E00895FB0101900020E9F73197AF01FF
:100FF000461B570B0C9433068F929F92AF92BF9271
:10100000EF92FF920F931F93CF93DF93CDB7DEB78D
:10101000A1970FB6F894DEBF0FBECDBF7C01FA01D9
:10102000CB0119A2223008F42AE08E010F5D1F4F78
:10103000822E912CB12CA12CBF01A50194010E94FC
:10104000C819F901CA016A300CF5605DD8016E93C8
:101050008D01232B242B252B79F790E080E010972E
:1010600021F0BD01C7010E94F207A1960FB6F894C6
:10107000DEBF0FBECDBFDF91CF911F910F91FF90CB
:10108000EF90BF90AF909F908F900895695CDECFF6
:10109000CF92DF92EF92FF920F931F93CF93DF9344
:1010A000EC016A017B016DE20E9429048C01442756
:1010B0005527BA014C195D096E097F092AE0CE0156
:1010C0000E94FC07800F911FDF91CF911F910F911C
:1010D000FF90EF90DF90CF9008950F931F93CF93E1
:1010E000DF93EC010E94F2078C016DE771E0CE0105
:1010F0000E94F207800F911FDF91CF911F910F91F6
:1011000008950C94F207FC0180819181009711F001
:101110000C94401B0895CF93DF93EC018BE491E096
:1011200099838883CE010E944507CE018E5A9F4F36
:10113000DF91CF910C948308AF92BF92CF92DF9250
:10114000EF92FF920F931F93CF93DF9300D000D0C5
:10115000CDB7DEB75C0182E58B83D5011F96ED919B
:10116000FC915097048115812081318142E0C42E89
:10117000D12CFE0131967F0141E050E0BE016D5F50
:101180007F4F1C968D919C910E94B7048A81D50156
:101190001E968C931E971F960D911C91011511059B
:1011A00031F0C8010E948308C8010E94401BF5016C
:1011B000108A17868981811102C081E0818B32E714
:1011C000F32EF982D5011E968C911E978A8301E039
:1011D00010E09E012D5F3F4F42E050E0BE016F5F87
:1011E0007F4F1C968D919C910E947C068B81813053
:1011F00039F464E670E080E090E00E943D01E1CFC8
:1012000087E58B83F50186858C8302E010E09E01E3
:101210002F5F3F4F42E050E0BE016D5F7F4F8485FE
:1012200095850E947C06898190E0982F88272A81E5
:10123000820F911D0F900F900F900F90DF91CF9123
:101240001F910F91FF90EF90DF90CF90BF90AF90E4
:1012500008950F931F93CF93DF93EC0177FF0FC097
:101260000E9448088C016DE771E0CE010E94F207F0
:10127000800F911FDF91CF911F910F9108952AE068
:101280000E94FC07EFCF0F931F93CF93DF93EC01E6
:10129000AB01770F660B770B77FF0FC00E944808F2
:1012A0008C016DE771E0CE010E94F207800F911F63
:1012B000DF91CF911F910F9108952AE00E94FC07C2
:1012C000EFCF4F925F926F927F928F929F92AF92E9
:1012D000BF92CF92DF92EF92FF92CF93DF93EC0118
:1012E0006A017B01AB019601CB01B6010E94C319D3
:1012F00060E871E081111AC046015701E894B7F81F
:101300002FEF3FEF4FE75FE7C501B4010E94C3191C
:10131000811126C02FEF3FEF4FE75FE7C501B40112
:101320000E94A3171816E4F464E871E0CE010E944D
:10133000F2077C016DE771E0CE010E94F2078E0D8D
:101340009F1DDF91CF91FF90EF90DF90CF90BF90E6
:10135000AF909F908F907F906F905F904F90089587
:101360002FEF3FEF4FE75FE4C701B6010E94BE19C0
:1013700018161CF468E871E0D9CF2FEF3FEF4FE764
:101380005FECC701B6010E94A31787FDF3CF20E0F1
:1013900030E0A901C701B6010E94A317B12CA12C0E
:1013A00087FF09C06DE2CE010E9429045C01F7FAB3
:1013B000F094F7F8F0942AE037ED43EA5BE3C701D5
:1013C000B6010E941C192B013C010E948F196B0170
:1013D0007C010E94A8179B01AC01C301B2010E94CD
:1013E0001B192B013C012AE0B701A601CE010E9486
:1013F000FC077C01EA0CFB1C6EE2CE010E94290472
:10140000E80EF91E20E030E040E251E4C301B201F1
:101410000E9409182B013C010E948F194B01B12C2D
:10142000A12C2AE0B501A401CE010E94FC07E80E20
:10143000F91EC501B4010E94A8179B01AC01C301AC
:10144000B2010E941B1920E030E040E251E40E940A
:1014500009180E948F19AB0170E060E02AE0CE010C
:101460000E94FC07E80EF91E65CF0F931F93CF93E0
:10147000DF93EC0188819981009759F02A813B81A3
:101480002617370730F081E0DF91CF911F910F9140
:1014900008958B016F5F7F4F0E94C91B009759F021
:1014A000998388831B830A832C813D81232B59F7E1
:1014B000FC011082E8CF80E0E7CFEF92FF920F931C
:1014C0001F93CF93DF93EC017B018A01BA010E9445
:1014D000350A28813981811114C02115310519F08F
:1014E000C9010E94401B198218821D821C821B8226
:1014F0001A82CE01DF91CF911F910F91FF90EF9053
:1015000008951D830C83B701C9010E948F1CF1CF80
:10151000FC01118210821382128215821482FB0157
:1015200001900020E9F73197AF01461B570B0C944F
:101530005D0A6F927F928F929F92AF92BF92CF92ED
:10154000DF92EF92FF920F931F93CF93DF9300D020
:1015500000D000D01F92CDB7DEB75C018B01D42E36
:10156000DC0113961C921E92129788EE93E0A0E085
:10157000B0E0F50184839583A683B7838BE491E083
:10158000918380833501F0E56F0E711C8AE394E04E
:10159000D3018D939C937501B2E5EB0EF11C6FE7BF
:1015A00071E0C7010E94880A4501E8E58E0E911C92
:1015B000D401DC92F80101900020E9F73197AF01E6
:1015C000401B510BB801C7010E945D0A80910A01BE
:1015D00090910B01A0910C0189839A83AB8386E4DF
:1015E0008E83D401EC91EC0FFD2FF11D81818F834F
:1015F00081E090E0F50197878687EA5AFF4F0081E6
:101600001181D7012D913C9182E0C82ED12CFE0191
:1016100034967F0142E050E0BE016A5F7F4FD30104
:101620008D919C910E94B7048C818823C1F08FEF2B
:10163000F401808327960FB6F894DEBF0FBECDBFAE
:10164000DF91CF911F910F91FF90EF90DF90CF909E
:10165000BF90AF909F908F907F906F900895F5010D
:10166000E75AFF4F8D818083D5011C961C92E2CFF3
:101670000F931F93CF93DF93CDB7DEB7CA55D10930
:101680000FB6F894DEBF0FBECDBF8C0142E06CE810
:1016900071E0CE0101960E94990AB801CE0101962F
:1016A0000E946D08CE0101960E944507CE01019669
:1016B0000E948B08C65ADF4F0FB6F894DEBF0FBEEC
:1016C000CDBFDF91CF911F910F910895BF92CF921F
:1016D000DF92EF92FF920F931F93CF93DF93CDB7DB
:1016E000DEB7CE50D2400FB6F894DEBF0FBECDBFEE
:1016F00062E189E793E00E942603182F1092960377
:10170000109295036DE189E793E00E942603482F2C
:101710004E7F6DE989E793E00E94A102412F62E9C3
:1017200089E793E00E94A10216FF39C015FD37C07A
:1017300010929403109293038091950390919603D5
:1017400062E2892B09F463E189E793E00E942603B2
:10175000082F10E060E189E793E00E942603482FFC
:101760006DE889E793E00E94A10241E861E889E71A
:1017700093E00E94A1020115110529F5C25FDD4F1A
:101780000FB6F894DEBF0FBECDBFDF91CF911F9192
:101790000F91FF90EF90DF90CF90BF90089561E0A0
:1017A00089E793E00E942603863841F340E06DE824
:1017B00089E793E00E94A10246E861E889E793E0A7
:1017C0000E94A102DBCF8DE991E00E94380B42E03C
:1017D0006CE871E0CE018F5F9E4F0E94990A6DEA1E
:1017E00071E0CE018F5F9E4F0E948108B801CE014B
:1017F0008F5F9E4F0E9443096EEB71E0CE018F5FB9
:101800009E4F0E948108F12CE12CD12CC12C89E73C
:1018100093E00E94AF03B82E482F50E070E060E0E4
:101820002AE0CE018F5F9E4F0E94FC076CEB71E0B7
:10183000CE018F5F9E4F0E94810884E0C816D104BC
:1018400054F0E1E0F0E0EC0FFD1FEE0DFF1DB08263
:10185000C70101967C019FEFC91AD90AC016D106AB
:10186000B1F6E1E0F0E0EC0FFD1FEE0DFF1D108280
:101870006DE771E0CE018F5F9E4F0E94F207CE01AF
:101880008F5F9E4F0E94450741E06FEC71E0CE01F3
:10189000855A9E4F0E94990ABE016F5F7F4FCE010D
:1018A000855A9E4F0E946D08CE01855A9E4F0E9418
:1018B000450742E06CE871E0CE018B549E4F0E94D8
:1018C000990A6DED71E0CE018B549E4F0E94810804
:1018D000BE016F5F7F4FCE018B549E4F0E946D08FB
:1018E000CE018B549E4F0E944507CE018B549E4FD4
:1018F0000E948B08CE01855A9E4F0E948B08CE0114
:101900008F5F9E4F0E948B0839CFAF92BF92CF92CC
:10191000DF92EF92FF920F931F93CF93DF936C01AF
:101920005B01FC01C785D0890C811D810F5F1F4FB2
:10193000B801CE010E94350A882361F028813981DF
:101940008C819D816EEE71E0820F931F0E948F1C2F
:101950001D830C83F501E080F180E114F104E9F0CE
:101960000481158101151105C1F0F601C785D089E3
:101970008C819D81080F191FB801CE010E94350A84
:10198000882359F0288139818C819D81B701820F8C
:10199000931F0E948F1C1D830C83DF91CF911F9199
:1019A0000F91FF90EF90DF90CF90BF90AF90089590
:1019B000EF92FF920F931F93CF93DF937C018B01E4
:1019C0000E94910686E090E00E94A41AEC01198220
:1019D00018821B821A821D821C820817190751F077
:1019E000F801608171816115710521F04481558193
:1019F0000E945D0AF701D08BC787DF91CF911F91BD
:101A00000F91FF90EF9008958F929F92AF92BF92A7
:101A1000CF92DF92EF92FF920F931F93CF93DF93BA
:101A2000CDB7DEB7C45DD1090FB6F894DEBF0FBEE7
:101A3000CDBF6F961FAE1EAE6F9788EE93E0A0E00D
:101A4000B0E0A3968CAF9DAFAEAFBFAFA3978BE1D5
:101A500091E06D969FAF8EAF6D978AE394E0A99663
:101A60009FAF8EAFA997AD961FAEAD97AE961FAE46
:101A7000AE97AF961FAEAF9742E06CE871E0CE0133
:101A800001960E94990A8E0101551F4F80E2F801CC
:101A900011928A95E9F760EF71E0CE0181539F4F73
:101AA0000E94880ABE0161537F4FCE01855A9F4F25
:101AB0000E94D80CCE0181539F4F0E94830864EF8F
:101AC00071E0CE0181539F4F0E94880ABE0161538D
:101AD0007F4FCE01855A9F4F0E94850CCE018153C6
:101AE0009F4F0E94830868EF71E0CE0181539F4FA2
:101AF0000E94880ABE0161537F4FCE01855A9F4FD5
:101B00000E94850CCE0181539F4F0E948308CE0115
:101B1000855A9F4F0E949C0878015801F9E0AF0E4A
:101B2000B11C6801CE01855A9F4F0E94BB06AE963C
:101B30008FADAE97882361F0CA14DB0449F0CE0163
:101B4000855A9F4F0E94FE06F60181936F01EACFEE
:101B5000C8010E94CC1560936B0370936C03809353
:101B60006D0390936E0363E172E0CE0101960E94D3
:101B7000810840916B0350916C0360916D037091EB
:101B80006E03CE0101960E94610980E2F801119274
:101B90008A95E9F760EF71E0CE0181539F4F0E9473
:101BA000880ABE0161537F4FCE01855A9F4F0E9424
:101BB000D80CCE0181539F4F0E94830864EF71E0DF
:101BC000CE0181539F4F0E94880ABE0161537F4F0F
:101BD000CE01855A9F4F0E94850CCE0181539F4FA5
:101BE0000E94830861E272E0CE0181539F4F0E9400
:101BF000880ABE0161537F4FCE01855A9F4F0E94D4
:101C0000850CCE0181539F4F0E948308CE01855AD7
:101C10009F4F0E949C085801FAE0AF0EB11C68016A
:101C2000CE01855A9F4F0E94BB06AE968FADAE97F0
:101C3000882321F0CA14DB0409F04DC2C8010E94B8
:101C4000CC1560935A0370935B0380935C0390936D
:101C50005D036CE372E0CE0101960E948108409121
:101C60005A0350915B0360915C0370915D03CE0158
:101C700001960E94610980E2F80111928A95E9F7C4
:101C800060EF71E0CE0181539F4F0E94880ABE0130
:101C900061537F4FCE01855A9F4F0E94D80CCE01D1
:101CA00081539F4F0E94830864EF71E0CE018153FE
:101CB0009F4F0E94880ABE0161537F4FCE01855A13
:101CC0009F4F0E94850CCE0181539F4F0E94830835
:101CD0006AE472E0CE0181539F4F0E94880ABE01E0
:101CE00061537F4FCE01855A9F4F0E94850CCE01D4
:101CF00081539F4F0E948308CE01855A9F4F0E94B7
:101D00009C085801F3E0AF0EB11C6801CE01855A62
:101D10009F4F0E94BB06AE968FADAE97882321F0F1
:101D2000CA14DB0409F0E0C1C8010E94D0151816DE
:101D3000190614F08AE090E090936A038093690397
:101D40006BE572E0CE0101960E9481086091690303
:101D500070916A03CE0101960E94430980E2F80166
:101D600011928A95E9F760EF71E0CE0181539F4FA0
:101D70000E94880ABE0161537F4FCE01855A9F4F52
:101D80000E94D80CCE0181539F4F0E94830864EFBC
:101D900071E0CE0181539F4F0E94880ABE016153BA
:101DA0007F4FCE01855A9F4F0E94850CCE018153F3
:101DB0009F4F0E94830864E672E0CE0181539F4FDB
:101DC0000E94880ABE0161537F4FCE01855A9F4F02
:101DD0000E94850CCE0181539F4F0E948308CE0143
:101DE000855A9F4F0E949C086801CE01855A9F4FDB
:101DF0000E94BB06AE968FADAE97882321F0CA1421
:101E0000DB0409F07AC1C8010E94D0151816190622
:101E100014F089E090E0909359038093580367E7AA
:101E200072E0CE0101960E94810860915803709182
:101E30005903CE0101960E94430980E2F8011192F4
:101E40008A95E9F760EF71E0CE0181539F4F0E94C0
:101E5000880ABE0161537F4FCE01855A9F4F0E9471
:101E6000D80CCE0181539F4F0E94830864EF71E02C
:101E7000CE0181539F4F0E94880ABE0161537F4F5C
:101E8000CE01855A9F4F0E94850CCE0181539F4FF2
:101E90000E94830862E872E0CE0181539F4F0E9446
:101EA000880ABE0161537F4FCE01855A9F4F0E9421
:101EB000850CCE0181539F4F0E948308CE01855A25
:101EC0009F4F0E949C085801F2E0AF0EB11C6801C0
:101ED000CE01855A9F4F0E94BB06AE968FADAE973E
:101EE000882321F0AC14BD0409F010C1C8010E9480
:101EF000D015909364038093630369E972E0CE0187
:101F000001960E9481086091630370916403CE0181
:101F100001960E94430980E2F80111928A95E9F73F
:101F200060EF71E0CE0181539F4F0E94880ABE018D
:101F300061537F4FCE01855A9F4F0E94D80CCE012E
:101F400081539F4F0E94830864EF71E0CE0181535B
:101F50009F4F0E94880ABE0161537F4FCE01855A70
:101F60009F4F0E94850CCE0181539F4F0E94830892
:101F700062EA72E0CE0181539F4F0E94880ABE013F
:101F800061537F4FCE01855A9F4F0E94850CCE0131
:101F900081539F4F0E948308CE01855A9F4F0E9414
:101FA0009C084801F5E08F0E911C6801CE01855A0E
:101FB0009F4F0E94BB06AE968FADAE97882321F04F
:101FC000C814D90409F0ABC0C8010E94EE15609393
:101FD0005F0370936003809361039093620369EBE6
:101FE00072E0CE0101960E94810840915F035091FA
:101FF00060036091610370916203CE0101960E94BB
:10200000290980E2F80111928A95E9F760EF71E001
:10201000CE0181539F4F0E94880ABE0161537F4FBA
:10202000CE01855A9F4F0E94D80CCE0181539F4FFD
:102030000E94830864EF71E0CE0181539F4F0E949C
:10204000880ABE0161537F4FCE01855A9F4F0E947F
:10205000850CCE0181539F4F0E94830866EC72E08D
:10206000CE0181539F4F0E94880ABE0161537F4F6A
:10207000CE01855A9F4F0E94850CCE0181539F4F00
:102080000E948308CE01855A9F4F0E949C08CE0172
:10209000855A9F4F0E94BB06AE968FADAE978823A0
:1020A00021F0EA14FB0409F043C0C8010E94D015D6
:1020B0008A30910508F0A8C0FC01EF59FF4E0C943E
:1020C000091AA110E610EB10F010F510FA10FF102D
:1020D000041109110E11CE01855A9F4F0E94FE0670
:1020E000F60181936F019CCDCE01855A9F4F0E94CE
:1020F000FE06F60181936F0109CECE01855A9F4FEE
:102100000E94FE06F60181936F016FCECE01855AC3
:102110009F4F0E94FE06F60181936F01D9CECE013A
:10212000855A9F4F0E94FE06F60181936F013ECFB4
:10213000CE01855A9F4F0E94FE06F70181937F01D1
:10214000A6CF88E79EE1A0E0B0E08093650390937E
:102150006603A0936703B093680367ED72E0CE0156
:1021600001960E9481084091650350916603609139
:10217000670370916803CE0101960E942909CE0180
:1021800001960E944507CE0101960E948B088BE1C3
:1021900091E06D969FAF8EAF6D97CE01855A9F4FA0
:1021A0000E949106CC52DF4F0FB6F894DEBF0FBEEF
:1021B000CDBFDF91CF911F910F91FF90EF90DF90F6
:1021C000CF90BF90AF909F908F90089580EA98E253
:1021D000A0E0B0E0BACF80EF9CE3A0E0B0E0B5CFE4
:1021E00080E491E5A0E0B0E0B0CF82E19AE7A0E022
:1021F000B0E0ABCF84EE92EAA0E0B0E0A6CF84E2FC
:1022000094EFA0E0B0E0A1CF88E498EEA1E0B0E0C8
:102210009CCF80E990EDA3E0B0E097CF80E291EA17
:10222000A7E0B0E092CF1F920F920FB60F92112449
:102230002F933F938F939F93AF93BF93809170039E
:1022400090917103A0917203B091730330916F0369
:1022500023E0230F2D3758F50196A11DB11D2093C2
:102260006F038093700390937103A0937203B093F4
:1022700073038091740390917503A0917603B091DC
:1022800077030196A11DB11D80937403909375038C
:10229000A0937603B0937703BF91AF919F918F91F5
:1022A0003F912F910F900FBE0F901F90189526E829
:1022B000230F0296A11DB11DD2CF1F920F920FB610
:1022C0000F9211242F933F934F935F936F937F93BC
:1022D0008F939F93AF93BF93EF93FF93E09102018E
:1022E000F09103010995FF91EF91BF91AF919F91FB
:1022F0008F917F916F915F914F913F912F910F90AF
:102300000FBE0F901F9018951F920F920FB60F924D
:1023100011242F933F934F935F936F937F938F93EA
:102320009F93AF93BF93EF93FF93E0910001F091E0
:1023300001010995FF91EF91BF91AF919F918F910D
:102340007F916F915F914F913F912F910F900FBEB1
:102350000F901F9018951F920F920FB60F92112495
:102360002F933F934F935F936F937F938F939F939D
:10237000AF93BF93EF93FF938DE993E00E94120216
:10238000FF91EF91BF91AF919F918F917F916F914D
:102390005F914F913F912F910F900FBE0F901F9023
:1023A00018951F920F920FB60F9211242F938F93AF
:1023B0009F93EF93FF93E091AD03F091AE03808183
:1023C000E091B303F091B40382FD1BC09081809132
:1023D000B6038F5F8F732091B703821741F0E091AE
:1023E000B603F0E0E356FC4F958F8093B603FF9160
:1023F000EF919F918F912F910F900FBE0F901F9093
:1024000018958081F4CFEDE9F3E01382128288EE13
:1024100093E0A0E0B0E084839583A683B7838DE545
:1024200091E09183808385EC90E09587848784ECAC
:1024300090E09787868780EC90E0918B808B81EC91
:1024400090E0938B828B82EC90E0958B848B86EC72
:1024500090E0978B868B118E128E138E148EA9E7C7
:10246000B3E013961C921E9212978FE691E011969C
:102470009C938E9380E51C968C931C9781E01D960F
:102480008C931D9788E793E01F969C938E931E97DD
:102490008AE090E051969C938E93509789E090E06B
:1024A00053969C938E93529782E090E055969C931E
:1024B0008E93549756961D921D921D921C92599779
:1024C0005B961C921E925A975D961C921E925C9788
:1024D0005F961C921E925E9791961C921E92909708
:1024E00014961D921D921D921C921797AAE3B4E0B8
:1024F000B0939C03A0939B031C921696FC93EE93BF
:10250000159717961C92179718961C9218971A965B
:10251000FC93EE9319970895CF93DF93CDB7DEB771
:10252000C356D1090FB6F894DEBF0FBECDBF789465
:1025300084B5826084BD84B5816084BD85B58260C8
:1025400085BD85B5816085BD80916E008160809379
:102550006E001092810080918100826080938100E2
:1025600080918100816080938100809180008160F2
:10257000809380008091B10084608093B10080914D
:10258000B00081608093B00080917A008460809375
:102590007A0080917A00826080937A0080917A003C
:1025A000816080937A0080917A00806880937A00BD
:1025B0001092C100E0914304F0914404A089B189D4
:1025C00082E08C93A485B5851C92A685B78580E1B1
:1025D0008C93108EA489B58986E08C93A289B389E7
:1025E0008C9180618C93A289B3898C9188608C9343
:1025F000A289B3898C9180688C930288F389E02D3D
:1026000080818F7D8083809141048111C6C081E0EB
:10261000809341048AE394E00E943F0468EE73E0F3
:1026200080E090E00E943D0180913F049091400441
:10263000DC01ED91FC910084F185E02D09951816DF
:10264000190644F3FF24F39462E3E62E85E0EDE0FF
:10265000F1E0DE01A55ABF4F01900D928A95E1F796
:10266000F092420410E000E030E020E045E050E06D
:10267000BE01655A7F4F8AE394E00E947C068091F8
:102680003F0490914004DC01ED91FC910190F081B8
:10269000E02D63E009956AEF70E080E090E00E9431
:1026A0003D0161EB70E080913F04909140040E94F5
:1026B00070016AEF70E080E090E00E943D016FEAF7
:1026C00070E080913F04909140040E94700164EF9B
:1026D00071E080E090E00E943D0163EA70E080914B
:1026E0003F04909140040E94700164EF71E080E02B
:1026F00090E00E943D018AE394E00E943F0485E05F
:10270000E2E1F1E0DE01119601900D928A95E1F788
:10271000E092420404E010E09E01205A3F4F45E061
:1027200050E0BE016F5F7F4F8AE394E00E947C0619
:102730008F3F980739F468EE73E080E090E00E94E4
:102740003D0184CFA1962FADA1972111FFCF049712
:1027500009F0CDC1A2962FADA2972053330B44E6CA
:10276000429FC001439F900D1124A3962FADA397C4
:102770003AE0239F800D911D1124805E9140A49624
:102780002FADA4972053330B820F931F90933C04DB
:1027900080933B0482E38093420441E060EE72E068
:1027A000CE0101960E94990A64EF72E0CE01019673
:1027B0000E948108CE0101960E944507CE01019634
:1027C0000E948B0884EF92E00E94380B8DEF92E01C
:1027D0000E94380B0E94040D82E193E00E94380BA6
:1027E000C0906B03D0906C03E0906D03F0906E038B
:1027F000809189030E94AD0061E0809189030E946D
:10280000CC0080918B0390918C038F3F9807C1F08F
:102810000E94AD0060E080918B030E94CC006AE0D2
:1028200070E080E090E00E943D0161E080918B03C8
:102830000E94CC006AE070E080E090E00E943D01E0
:102840001FB7F89480915E03811124C0E5EEF0E09B
:102850008491E9EFF0E09491E82FF0E0EE0FFF1F94
:10286000EF52FF4FA591B491EC91E92321F461E07F
:102870008AE00E94CC008AE00E94AD008CB58061A5
:102880008CBD8CB580648CBD8DE00E94AD008BE06A
:102890000E94AD0080915E038F5F80935E031FBF37
:1028A00062E489E793E00E942603823109F422C1A1
:1028B0008DE193E00E94380B86E393E00E94380B91
:1028C00060916B0370916C0380916D0390916E0326
:1028D0000E9488190E94C6020091690310916A0340
:1028E0000630110544F00D3011050CF046C10630DC
:1028F000110509F044C145EC61EB89E793E00E94C2
:10290000A1024CE067EB89E793E00E94A10206E098
:1029100010E06EE189E793E00E9426038F7044E0A7
:10292000000F111F4A95E1F7482F402B6EE989E708
:1029300093E00E94A1020E942903609165037091B7
:10294000660380916703909168030E94AA176B0148
:102950007C0120E030EC43EF55E40E94A31710E027
:1029600000E018160CF065C020E030E842E256E4C2
:10297000C701B6010E94A31701E010E018160CF081
:1029800058C020E030EC43E756E4C701B6010E948E
:10299000A31702E010E018160CF04BC020E030E85E
:1029A00042EA56E4C701B6010E94A31703E010E013
:1029B00018160CF03EC020E034E244EF56E4C701A4
:1029C000B6010E94A31704E010E0181694F520E069
:1029D00034EE42E257E4C701B6010E94A31705E0B6
:1029E00010E0181634F520E034E244E757E4C7015C
:1029F000B6010E94A31706E010E01816D4F420E0F8
:102A000034E244EF57E4C701B6010E94A31707E080
:102A100010E0181674F420E034E244E758E4C701EB
:102A2000B6010E94A31709E010E0181614F008E0A0
:102A300010E06DE189E793E00E9426038F7034E097
:102A4000000F111F3A95E1F7482F402B6DE989E7F8
:102A500093E00E94A1020E94290300916303109158
:102A600064030930110514F008E010E00530110589
:102A700014F405E010E0045011096DE189E793E0DA
:102A80000E942603817FA801440F551F482B6DE942
:102A900089E793E00E94A102C0905F03D090600399
:102AA000E0906103F09062037727F7FC7A956F2D31
:102AB0005E2D4D2D60EA89E793E00E94A1024C2D26
:102AC00061EA89E793E00E94A1028AE493E00E9410
:102AD000380B00E010E00E94660B01151105D9F3D8
:102AE0000E94FE018823B9F30E940000F4CF84E61F
:102AF00090E04CCE40E861E889E793E00E94A102B3
:102B0000C701B6010E9488190E94C60240E06EE823
:102B100089E793E00E94A10240E06FE889E793E033
:102B20000E94A1026CE089E793E00E942603482FEF
:102B300043606CE889E793E00E94A10244E066EA02
:102B400089E793E00E94A10244E86DEC89E793E0F5
:102B50000E94A1024BE26BE889E793E00E94A10288
:102B60004FE869E889E793E00E94A10241E861E843
:102B700089E793E00E94A1029FCE0CE010E043ECB5
:102B800061EB89E793E00E94A1024AE067EB89E7E5
:102B900093E00E94A102BDCE662777270C943216DF
:102BA000FC0188279927E89421912032E9F3293004
:102BB00010F02E30C8F32B3241F02D3239F46894E6
:102BC00004C00E942A16820F911D219120532A30A1
:102BD000C0F31EF4909581959F4F08951F93FC01BB
:102BE00099278827BC01E89411911032E9F3193034
:102BF00010F01E30C8F31B3251F01D3249F46894B6
:102C000006C00E941516610F711D811D911D119145
:102C100010531A30B0F33EF49095809570956195FD
:102C20007F4F8F4F9F4F1F910895592F482F372F58
:102C3000262F660F771F881F991F660F771F881F23
:102C4000991F620F731F841F951F660F771F881FC0
:102C5000991F08957AE0979F902D879F802D910D61
:102C600011240895B0E0A0E0E8E3F6E10C94DB184D
:102C70005C017B016115710519F0DB018D939C935B
:102C800085010F5F1F4FF501D0818D2F90E00E94CD
:102C900082176C01892BB9F5DD32B9F50F5F1F4F33
:102CA000D5011196DC91C1E05801F1E0AF1AB108ED
:102CB00043E050E060E770E0C5010E948B17892B6C
:102CC00069F5680182E0C80ED11C45E050E06BE672
:102CD00070E0C6010E948B17892B21F4680197E0F0
:102CE000C90ED11CE114F10419F0D701CD92DC9288
:102CF00060E070E080E89FEFC111FFC060E070E02D
:102D000080E89FE7FAC05801BBCFDB3229F4850188
:102D10000E5F1F4FF501D181C0E0C6CF43E050E008
:102D200068E670E0C5010E948B17892BE9F0F80175
:102D300010E000E020E030E0A9015F01B0ED8B2E53
:102D40008D0E89E08815C8F19C2E689491F88C2F1F
:102D50008870C2FF16C0811102C00F5F1F4F3196ED
:102D6000D501DC91C92DE9CFE114F10429F00E5F02
:102D70001F4FF7011183008360E070E080EC9FE754
:102D8000BCC0882311F001501109A5E0B0E00E94F9
:102D9000CA189B01AC01220F331F441F551F280D79
:102DA000311D411D511D283999E93907490799E11C
:102DB0005907A8F2C6609C2ED2CFAEEF8A1206C089
:102DC000C3FD3CC09C2E689493F8C9CFDF7DD534F9
:102DD000A9F580818D3239F4C061DF0112968181BD
:102DE00062E070E006C0DF018B32C1F3119661E052
:102DF00070E080535D01A61AB70A8A30F8F4E0E863
:102E0000CE16ECE0DE065CF4B601660F771F660FA7
:102E1000771FC60ED71ECC0CDD1CC80ED11C5D0161
:102E2000FFEFAF1ABF0A8C9180538A30A8F1C4FF1C
:102E300003C0D194C194D1080C0D1D1DC1FF09C060
:102E4000E114F10431F081E0A81AB108D701AD9284
:102E5000BC92CA01B9010E94A817C370C33009F41B
:102E600090584B015C0120E030E0A9010E94A317BB
:102E7000882309F440C0CFE9D0E017FF05C01195C1
:102E800001951109C7E8D0E06E01B8E1CB1AD1086D
:102E900080E2E82EF12C0FC0D501B1CFFE012591C3
:102EA0003591459154910E191F09C501B4010E9435
:102EB00009184B015C01D501C4010E151F0574F7FB
:102EC0002497F594E794CC16DD06A9F78A2F880F8E
:102ED0008B2F881F8F3F49F020E030E0A901C5010A
:102EE000B4010E94A317811106C082E290E0909382
:102EF000460480934504C501B401CDB7DEB7ECE0CC
:102F00000C94F71891110C947618803219F08950AE
:102F10008550C8F70895FB01DC014150504088F00E
:102F20008D9181341CF08B350CF4805E6591613499
:102F30001CF06B350CF4605E861B611171F3990B0C
:102F40000895881BFCCF0E94E51708F481E00895DE
:102F5000E89409C097FB3EF4909580957095619533
:102F60007F4F8F4F9F4F9923A9F0F92F96E9BB27E9
:102F70009395F695879577956795B795F111F8CF65
:102F8000FAF4BB0F11F460FF1BC06F5F7F4F8F4FD0
:102F90009F4F16C0882311F096E911C0772321F0C6
:102FA0009EE8872F762F05C0662371F096E8862F5E
:102FB00070E060E02AF09A95660F771F881FDAF7B5
:102FC000880F9695879597F90895990F0008550FE2
:102FD000AA0BE0E8FEEF16161706E807F907C0F09F
:102FE00012161306E407F50798F0621B730B840BA7
:102FF000950B39F40A2661F0232B242B252B21F481
:1030000008950A2609F4A140A6958FEF811D811D20
:1030100008950E941C180C9490180E94821838F091
:103020000E94891820F0952311F00C9479180C94C3
:103030007F1811240C94C4180E94A11870F3959F56
:10304000C1F3950F50E0551F629FF001729FBB279F
:10305000F00DB11D639FAA27F00DB11DAA1F649F3B
:103060006627B00DA11D661F829F2227B00DA11DEE
:10307000621F739FB00DA11D621F839FA00D611D74
:10308000221F749F3327A00D611D231F849F600D95
:10309000211D822F762F6A2F11249F5750409AF0BE
:1030A000F1F088234AF0EE0FFF1FBB1F661F771F4A
:1030B000881F91505040A9F79E3F510580F00C9415
:1030C00079180C94C4185F3FE4F3983ED4F38695C6
:1030D00077956795B795F795E7959F5FC1F7FE2BB5
:1030E000880F911D9695879597F9089599278827B8
:1030F000089597F99F6780E870E060E008959FEF7A
:1031000080EC089500240A9416161706180609067E
:10311000089500240A94121613061406050608954D
:10312000092E0394000C11F4882352F0BB0F40F4D5
:10313000BF2B11F460FF04C06F5F7F4F8F4F9F4F15
:10314000089557FD9058440F551F59F05F3F71F097
:103150004795880F97FB991F61F09F3F79F08795FE
:103160000895121613061406551FF2CF4695F1DF87
:1031700008C0161617061806991FF1CF8695710517
:10318000610508940895E894BB2766277727CB014B
:1031900097F908950E940C19A59F900DB49F900D6A
:1031A000A49F800D911D112408952F923F924F925C
:1031B0005F926F927F928F929F92AF92BF92CF92C7
:1031C000DF92EF92FF920F931F93CF93DF93CDB7D0
:1031D000DEB7CA1BDB0B0FB6F894DEBF0FBECDBF48
:1031E00009942A88398848885F846E847D848C8419
:1031F0009B84AA84B984C884DF80EE80FD800C8122
:103200001B81AA81B981CE0FD11D0FB6F894DEBF04
:103210000FBECDBFED010895A29FB001B39FC001C5
:10322000A39F700D811D1124911DB29F700D811DF2
:103230001124911D08955058BB27AA270E943319C5
:103240000C9490180E94821838F00E94891820F07F
:1032500039F49F3F19F426F40C947F180EF4E0958E
:10326000E7FB0C947918E92F0E94A11858F3BA17BC
:10327000620773078407950720F079F4A6F50C948C
:10328000C3180EF4E0950B2EBA2FA02D0B01B90137
:1032900090010C01CA01A0011124FF27591B99F0CC
:1032A000593F50F4503E68F11A16F040A22F232FD8
:1032B000342F4427585FF3CF469537952795A79528
:1032C000F0405395C9F77EF41F16BA0B620B730BCF
:1032D000840BBAF09150A1F0FF0FBB1F661F771F40
:1032E000881FC2F70EC0BA0F621F731F841F48F4F5
:1032F000879577956795B795F7959E3F08F0B0CF7E
:103300009395880F08F09927EE0F97958795089564
:103310000E948F196894B1110C94C41808950E94EA
:10332000A91888F09F5798F0B92F9927B751B0F096
:10333000E1F0660F771F881F991F1AF0BA95C9F739
:1033400014C0B13091F00E94C318B1E008950C94FC
:10335000C318672F782F8827B85F39F0B93FCCF3AF
:10336000869577956795B395D9F73EF490958095B6
:10337000709561957F4F8F4F9F4F08950E94E5177D
:1033800008F48FEF08950E94E517880B990B0895B4
:10339000A1E21A2EAA1BBB1BFD010DC0AA1FBB1F59
:1033A000EE1FFF1FA217B307E407F50720F0A21BCB
:1033B000B30BE40BF50B661F771F881F991F1A9438
:1033C00069F760957095809590959B01AC01BD0162
:1033D000CF010895052E97FB1EF400940E94011A58
:1033E00057FD07D00E94C81907FC03D04EF40C9477
:1033F000011A50954095309521953F4F4F4F5F4FA3
:10340000089590958095709561957F4F8F4F9F4F50
:103410000895EE0FFF1F0590F491E02D0994689434
:1034200001C0E8948F929F92CF93DF930E941D1A60
:10343000DF91CF919F908F90089588249924F40173
:10344000E401B0E49F93AA279A158B049C04ED0530
:10345000FE05CF05D007A10798F4AD2FDC2FCF2FA5
:10346000FE2FE92D982C892E982F872F762F652FE8
:10347000542F432F322F2227B85031F7BF9127C046
:103480001B2EBF91BB27220F331F441F551F661FE2
:10349000771F881F991F881C991CEE1FFF1FCC1FC8
:1034A000DD1FAA1FBB1F8A149B04EC05FD05CE057A
:1034B000DF05A007B10748F08A189B08EC09FD0951
:1034C000CE09DF09A00BB10B21601A94E1F62EF4AE
:1034D0009401AF01BE01CD01000C0895002E08300B
:1034E00090F0982F872F762F652F542F432F322F50
:1034F00022270850F4CF220F331F441F551F661F89
:10350000771F881F991F0A95B2F7002D089597FD20
:103510001094002E083098F00850232F342F452F98
:10352000562F672F782F892F912DF4CF15949795CB
:1035300087957795679557954795379527950A9578
:10354000AAF71124002D08950F931F93CF93DF93B3
:103550008230910510F482E090E0E0914904F0910E
:103560004A0430E020E0B0E0A0E0309799F4211563
:10357000310509F44AC0281B390B24303105D8F530
:103580008A819B816115710589F1FB019383828397
:10359000FE0111C0408151810281138148175907F2
:1035A000E0F04817590799F4109761F012960C93C0
:1035B000129713961C933296CF01DF91CF911F91F2
:1035C0000F9108950093490410934A04F4CF2115F4
:1035D000310551F04217530738F0A901DB019A0178
:1035E000BD01DF01F801C1CFEF01F9CF90934A048B
:1035F00080934904CDCFFE01E20FF31F8193919395
:103600002250310939832883D7CF20914704309144
:103610004804232B41F42091060130910701309397
:10362000480420934704209104013091050121159D
:10363000310541F42DB73EB7409108015091090181
:10364000241B350BE0914704F0914804E217F3077F
:10365000A0F42E1B3F0B2817390778F0AC014E5F02
:103660005F4F2417350748F04E0F5F1F50934804F3
:1036700040934704819391939FCFF0E0E0E09CCF8B
:10368000CF93DF930097E9F0FC0132971382128207
:10369000A0914904B0914A04ED0130E020E0109778
:1036A000A1F420813181820F931F20914704309132
:1036B00048042817390709F061C0F0934804E093E3
:1036C0004704DF91CF910895EA01CE17DF07E8F5AF
:1036D0004A815B819E0141155105B1F7E901FB83E8
:1036E000EA8349915991C40FD51FEC17FD0761F486
:1036F000808191810296840F951FE90199838883C7
:10370000828193819B838A83F0E0E0E012968D9121
:103710009C9113970097B9F52D913C911197CD018C
:103720000296820F931F2091470430914804281776
:10373000390739F6309751F510924A04109249042E
:10374000B0934804A0934704BCCFD383C283408185
:103750005181840F951FC817D90761F44E5F5F4FE1
:1037600088819981480F591F518340838A819B81A9
:10377000938382832115310509F0B0CFF0934A0479
:10378000E09349049ECFFD01DC01C0CF1382128279
:10379000D7CFB0E0A0E0EFECFBE10C94D7188C01A0
:1037A000009751F4CB010E94A41A8C01C801CDB737
:1037B000DEB7E0E10C94F318FC01E60FF71F9C0163
:1037C00022503109E217F30708F49DC0D901CD91C9
:1037D000DC911197C617D70798F0C530D10530F3A3
:1037E000CE0104978617970708F3C61BD70B2297BD
:1037F000C193D1936D937C93CF010E94401BD6CF90
:103800005B01AC1ABD0A4C018C0E9D1EA0914904AF
:10381000B0914A04512C412CF12CE12C109731F538
:1038200080914704909148048815990509F05CC07F
:103830004616570608F058C0809104019091050182
:10384000009741F48DB79EB740910801509109014E
:10385000841B950BE817F90708F055C0F09348044E
:10386000E0934704F90171836083A0CF8D919C910F
:10387000119712966C90129713967C901397A81537
:10388000B90559F56C0142E0C40ED11CCA14DB0421
:1038900020F1AC014A195B09DA011296159780F004
:1038A0006282738251834083D9016D937C93E114CA
:1038B000F10471F0D7011396FC93EE93129776CF33
:1038C00022968C0F9D1FF90191838083F301EFCF26
:1038D000F0934A04E093490469CF4816590608F466
:1038E0002C017D01D3019ACFCB010E94A41A7C0147
:1038F000009749F0AE01B8010E94861CC8010E94E1
:10390000401B870153CF10E000E050CFFB01DC01EA
:1039100002C001900D9241505040D8F70895FB012C
:10392000DC0101900D920020E1F70895F894FFCF9B
:103930006F016F0100004B04800072776158585886
:10394000585858583130300000000020079401EFDB
:103950000788031607FE06EB06781E00A02800F075
:103960003C00405100127A00E4A20024F40048E830
:103970000190D00320A1070000000029043306EFC6
:10398000078803BA07D707C4070000000034029471
:1039900001C1018102F201D001E401000000001325
:1039A00004D803EF078803CA03AF0389030D0A0095
:1039B0006E616E00696E66006F7666002F766172CA
:1039C0002F6C6F672F746564657265720070616338
:1039D0006B657420726563656976656400202020DC
:1039E00073697A65202020202020203D200020209F
:1039F0002064617461202864656329203D20002FC4
:103A00007661722F696F742F6461746100202020C9
:103A10006D657373616765202020203D2000FE00E6
:103A200075636900676574006C6F726177616E2EF3
:103A3000726164696F2E72785F6672657175656E0A
:103A400063790020202072782D66726571203D20F8
:103A5000006C6F726177616E2E726164696F2E7493
:103A6000785F6672657175656E63790020202074D9
:103A7000782D66726571203D20006C6F72617761F0
:103A80006E2E726164696F2E5346002020205346CB
:103A9000203D20006C6F726177616E2E72616469E7
:103AA0006F2E545853460020202074787366203DB2
:103AB00020006C6F726177616E2E726164696F2E87
:103AC000636F646572617465002020204352203D5D
:103AD00020006C6F726177616E2E726164696F2E67
:103AE000707265616D626C65002020207072654C9B
:103AF000656E203D20006C6F726177616E2E726181
:103B000064696F2E4257002020204257203D20003C
:103B10002F7661722F6176722F66775F766572738A
:103B2000696F6E006677645F763034390072656164
:103B300064696E6720726164696F20636F6E666985
:103B400067004C6F52612E626567696E0045525284
:103B50004F523A204C6F52612E626567696E206643
:103B600061696C656400636F6E6669677572654C48
:103B70006F52614D6F64756C6500656E64206F6691
:083B80002073657475700000EC
:00000001FF
